:1000000007308A00092F0000FF00030E8301A100C2
:100010000A08A0008A010408A2007708A300780853
:10002000A4007908A5007A08A60003170D08031399
:10003000A70003170F080313A80003170C080313E6
:10004000A90003170E080313AA00831383120B1EC3
:100050002B288B184C28220884002308F70024083A
:10006000F8002508F9002608FA00270803178D0074
:100070000313280803178F000313290803178C00A4
:1000800003132A0803178E00031320088A00210E89
:100090008300FF0E7F0E09008A110A1257280A10EA
:1000A0008A100A11820728340C3401340634AD0A50
:1000B0002D08033C0319AD018B108A110A122B285D
:1000C0002024451054244F27471054244F2747100D
:1000D0000000A023C927A021C827A0234129C123AC
:1000E000C5290001CE23D52C4527202B4127202AC6
:1000F000C82049004E24C92254224F1DA012331794
:100100003133A0210000CE23D52C4527202B4127B9
:10011000202AC82049004E24C92254224F1DA01273
:1001200033173133A021000007103510350883162E
:10013000870083128710B510350883168700831255
:100140000711351135088316870083128A110A12A8
:10015000512F490803191929D1004D0803191929EC
:10016000D1070318BA287F30D102031C19290319BB
:100170001929BE288130D107031819295108F70021
:10018000F801F901FA014A08D500D5174B08D40047
:100190004C08D3001830D100D201531CE728500876
:1001A000FA07031CD928F90A031DD928F80A0319EC
:1001B000D2174F08F907031CE028F80A0319D217D1
:1001C0004E08CB00CB174B08F8070318D217D20DF7
:1001D000F80CF90CFA0CD50CD40CD30C0310D10B81
:1001E000CC280130F70703181929F81BFE28D50D74
:1001F000FA0DF90DF80DF70303191929D51F0F2969
:10020000FA0A031D0F29F90A031D0F29F80A031D15
:100210000F29F80CF90CFA0CF70A031919294A08E6
:10022000D2004E08D206D21F1729F8171D29F8133D
:100230001D29F701F801F901FA0108001F151F191E
:100240001F291E08F90083161E08F800790883127A
:10025000AF007808AE002F08B9002E08B8008E3025
:10026000F7003908F8003808F900FA01F808031D0A
:1002700043297908F800F9010830F702F808031D4E
:100280004329F7014B290310F81B4A29F90DF80DF2
:10029000F7034329F8137A08BB007908BA007808F5
:1002A000B9007708B8003B08CC003A08CB00390801
:1002B000CA003808C9002330D000DB30CF007930C5
:1002C000CE007D30CD00A9207A08BB007908BA00A5
:1002D0007808B9007708B80083143B08BF003A08D3
:1002E000BE003908BD003808BC00C301C20120307F
:1002F000C1008430C00080308318C106C601C70128
:100300003D08C5004108C5063C0803196B2AC40016
:10031000F70040080319742AC4020319102A031CA9
:10032000CE294108CA00CA174208C9004308C800BC
:10033000C7010310CA0CC90CC80CC70CC40B982900
:10034000C51FA5294614882A4610441046163F307A
:10035000840083139D2A4612C51BB829441CC32957
:10036000CA0CC90CC80CC70CF70A0319832AC32985
:10037000CA1BC6290310C70DC80DC90DCA0DF70346
:100380000319832AB8294617302A46133D08C500A9
:10039000C51FCC29CA177C2ACA137C2A4008C4006E
:1003A000F7003C08C4023D08CA00CA173E08C9004D
:1003B0003F08C800C7010310CA0CC90CC80CC70C01
:1003C000C40BDA29C51FE729C614882AC6104410B1
:1003D000C6164330840083139D2AC612C51BFA2912
:1003E000441C052ACA0CC90CC80CC70CF70A03190F
:1003F000832A052ACA1B082A0310C70DC80DC90D78
:10040000CA0DF7030319832AFA29C617302AC6131F
:100410004108C500C51F0E2ACA177C2ACA137C2AA8
:100420004108CA00CA174208C9004308C800C51FCE
:100430001D2ACA134615882A4611C70144103F30A9
:10044000840083139D2AC51B462A3D08C500441C11
:10045000302ACA0CC90CC80CC70CF70A0319832A26
:10046000C71F412AC80A031D412AC90A031D412A80
:10047000CA0A031D412ACA0CC90CC80CF70A031981
:10048000832A461BC529C61B072A652A8030CA064F
:10049000CA1F4E2A882A4108C5005B2A3D08C500AC
:1004A000CA08031D5B2AC908031D5B2AC808031D6F
:1004B0005B2AF7017C2ACA1B652A0310C70DC80DE9
:1004C000C90DCA0DF70B5B2A832AC51F692ACA17F3
:1004D0007C2ACA137C2A4008F7004108CA00420857
:1004E000C9004308C8007C2A3C08F7003D08CA0040
:1004F0003E08C9003F08C8004A08F8004908F9004A
:100500004808FA00BB2AF701F801F901FA01BB2AF1
:10051000C701C809C909CA09C709C70A031D962A1C
:10052000C80A031D962AC90A0319CA0A4618A4292B
:10053000C618E62946191C2A4B2A0008C807031CBE
:10054000A72AC90A031DA72ACA0A03194414840347
:100550000008C907031CAF2ACA0A031944148403FC
:100560000008801F803ACA0703184414461AAB29B2
:10057000C61AED29232A08004A3084008313000894
:100580000319D02A0130F800F701F70BC52AF80B40
:10059000C42A4A30F700F70BCB2ACE2A800BC22A96
:1005A00008005118D52A0812D62A081683160812F0
:1005B0008312D118DD2A8812DE2A88168316881243
:1005C00083125119E52A0813E62A0817831608131F
:1005D0008312D119ED2A8813EE2A881783168813FF
:1005E00000008312881583168811F62A8312881159
:1005F0008316881183120800D20183160816003072
:100600008312081A0130D204831688160030831230
:10061000881A0130F7000310F70D7708D20483160B
:10062000081700308312081B0130F700F70DF70D93
:10063000FC30F7057708D204831688170030831240
:10064000881B0130F700F70DF70DF70DF830F705AF
:100650007708D2045208F800080088108316881022
:1006600008168816081788178312081583160811AC
:100670000000831288158316881100008312FC2263
:100680007808D1008811831688110000831288151C
:100690008316881100008312FC227808D00088118C
:1006A0008316881108128812081388138312510EBA
:1006B000F700F030F70577085004F8007808D0000C
:1006C000D01F642B8316302BCE08031D692B881096
:1006D0006A2B881483168810000083120811831671
:1006E00008110000831288118316881183124F0E9F
:1006F000D0000F30D0055008D100D1224F080F395B
:10070000D000D100D12208008316081288120813E5
:100710008813881188100811831288108316881096
:100720008312081183160811831288118316881109
:100730000F308312CA00BC220130B8003808033CD5
:10074000031CAA2B0330D100D1220530CA00BC22E1
:10075000B80A9E2B0230D100D122B8013808033CE0
:10076000031CBB2B38084F20B900CE013908CF003D
:100770002D23B80AAE2B8A110A12532F4B0BC22B12
:10078000CC01D62B4B08023C031DC92B4030CC00BA
:10079000D62B4B08033C031DD02B1430CC00D62B9A
:1007A0004B08043C031DD62B5430CC0001304A02C8
:1007B000CC074C088038CD00CE014D08CF002D234A
:1007C000080049080C3A0319EC2B063A0319F42BDC
:1007D000023A0319FA2BFF2BCE010130CF002D2353
:1007E0000230CA00BC22042C0130CA000230CB0007
:1007F000BE23042CCE011030CF002D23042C013059
:10080000CE004908CF002D2308000B08B8008B1339
:10081000831603178C170C140000000083120313B7
:10082000B81B8B1703170C087F390319592C0313B6
:10083000B80003170D080313B90003170F080313BB
:10084000BA003808C900E123390803178D000313E3
:100850003A0803178F0003130B08BB008B13831692
:1008600003178C170C140000000083120313BB1B2A
:100870008B1703170C0D0E0D7F390319592C031319
:10088000B80003170D080313B90003170F0803136B
:10089000BA003808C900E123390803178D00031393
:1008A0003A0803178F008D0A03198F0A0313052CCA
:1008B0000317031308000B08BD008B1383160317DF
:1008C0008C170C140000000083120313BD1B8B1740
:1008D0000318922C03170C087F390313BD0003176C
:1008E0000D080313BE0003170F080313BF003D08D4
:1008F000C900E1233E0803178D0003133F080317C7
:100900008F0003130B08C0008B13831603178C177B
:100910000C140000000083120313C01B8B17BC0BC8
:10092000922CB12C03170C0D0E0D7F390313BD0053
:1009300003170D080313BE0003170F080313BF00AE
:100940003D08C900E1233E0803178D0003133F084B
:1009500003178F008D0A03198F0A03100313BC0BB2
:100960005B2C08008318B72C513084008313F701E7
:10097000F801F901FA01D101D201D301D4015008E3
:100980004F044E044D040319F52C2030D5000310FC
:10099000C90DCA0DCB0DCC0DD10DD20DD30DD40D7B
:1009A00050085402031DDE2C4F085302031DDE2C99
:1009B0004E085202031DDE2C4D085102031CEF2C81
:1009C0004D08D1024E08031C4E0FD2024F08031CE3
:1009D0004F0FD3025008031C500FD4020314F70D1D
:1009E000F80DF90DFA0DD50BC72C51088000840ABB
:1009F00052088000840A53088000840A540880004A
:100A000008000408C1004008C3000319202D3F0856
:100A1000CC003E08CB003D08CA003C08C900D0010C
:100A2000CF012030CE008230CD00A9207A08BF004F
:100A30007908BE007808BD007708BC00C30B072DFD
:100A40003F08CC003E08CB003D08CA003C08C90066
:100A50004908B63CC900FA014A08CD00CA1703107C
:100A6000CA0CCB0CCC0CFA0CF90CF80CF70CC90B1B
:100A70002F2DCD1F462DF709F809F909FA09F70AB4
:100A80000319F80A0319F90A0319FA0A7A08BF00C8
:100A90007908BE007808BD007708BC00BF1F5D2D37
:100AA000C103C116BC09BD09BE09BF09BC0A0319AF
:100AB000BD0A0319BE0A0319BF0A3B30C8009A30A9
:100AC000C700CA30C600C5010A30C3004008031978
:100AD000C10A83143C30840083133F08CC003E08D5
:100AE000CB003D08CA003C08C9004808D0004708B0
:100AF000CF004608CE004508CD00B2247808F7089C
:100B0000031D952D400A43020319952D4108031931
:100B1000972D0F39430203198F2D0318C72DC11BC1
:100B2000C72D411B972D2030C32D2030C105C11E7C
:100B3000A52DC1124008031DC1037708C1002D3047
:100B4000C900E1234108F700C10140084302031D29
:100B5000B32D7708C1002E30C900E1234108F7000A
:100B60002030C10500303030C11EC32DC1124008F5
:100B7000031DC1037708C1002D30C900E1234108DE
:100B8000F700C1013030F7077708C900E12383106F
:100B90004808CC004708CB004608CA004508C900F1
:100BA000D001CF01CE010A30CD00B2247A08C800AE
:100BB0007908C7007808C6007708C500C30B692DFF
:100BC0000800861383168613861483128618F72D61
:100BD0001430CA00BC228316861483128618F22DA4
:100BE0000130B406831686148312861CF22D8316F8
:100BF0000615831206190B2E1430CA00BC22831668
:100C0000061583120619062E0230B4068316061541
:100C10008312061D062E83168615831286191F2E33
:100C20001430CA00BC2283168615831286191A2E28
:100C30000430B406831686158312861D1A2E341CC2
:100C4000282E071435103508831687002D2E8312A1
:100C5000071035103508831687008312B41C372E11
:100C60008714B5103508831687003C2E8312871031
:100C7000B5103508831687008312341D462E0715DC
:100C800035113508831687004B2E83120711351155
:100C9000350883168700831208003908C0003D0814
:100CA000C006C01F582E03110310B91B03148B2E4E
:100CB0003908C0003C08C1003808C1020319662E7B
:100CC000C01F8B2E0308013A83008B2E3D08C10004
:100CD0003908C1020319722EC01F8B2E0308013A76
:100CE00083008B2E3E08C1003A08C10203197E2EF4
:100CF000C01F8B2E0308013A83008B2E3F08C100D2
:100D00003B08C10203198A2EC01F8B2E0308013A2B
:100D100083008B2E03100800861783168613831218
:100D20001E217A08B3007908B2007808B10077086C
:100D3000B0003308BB003208BA003108B9003008EF
:100D4000B800BF01BE012030BD008330BC004D267D
:100D5000031CBD2E07143510350883168700831237
:100D60008710B510350883168700831207113511D7
:100D7000350883168700052F83123308BB0032081D
:100D8000BA003108B9003008B800BF01BE017030A8
:100D9000BD008330BC004D26031CE12E071035102A
:100DA00035088316870083128714B510350883161B
:100DB0008700831207153511350883168700052F24
:100DC00083123308BB003208BA003108B90030087A
:100DD000B800BF01BE014830BD008530BC004D26C3
:100DE0000318F42E031D062F07143510350883163B
:100DF000870083128714B510350883168700831285
:100E00000715351135088316870083128A110A12D7
:100E1000F52F03081F398300813083169900A6300F
:100E20009800903083129800AD013410B410341142
:100E3000FF30B500B701B60183161F149F141F15AC
:100E40009F1107309C0083138312AB01AC010B167A
:100E500083160117C03083128B04FF308316850080
:100E60007F3086000F3087008312B500831688001C
:100E70001F1383121F179F1783169F1783121F14A8
:100E800083161F109F101F119F110030F80083124E
:100E90001F08C73978049F008613831686138312B0
:100EA00094281E21842B0C30C900E1230130CA0094
:100EB000CB00BE23603003178D0000308F0003137A
:100EC00005240130CA000230CB00BE23693003176D
:100ED0008D0000308F00031305241C30B800FA3059
:100EE000CA00BC22B80B6F2F0C30C900E1230130BF
:100EF000CA00CB00BE23723003178D0000308F0074
:100F0000031305240130CA000230CB00BE231E218A
:100F10007A08BB007908BA007808B9007708B800E9
:100F20007A3003178D0000308F000310093003134F
:100F3000BC005B24023084003B08BF003A08BE00BE
:100F40003908BD003808BC000130C0000125203040
:100F5000C900E1234330C900E123C830CA00BC22E4
:100F60000130CA00CB00BE23833003178D00003050
:100F70008F00031305240130CA000230CB00BE23CA
:100F80001E217A08BB007908BA007808B9007708F2
:100F9000B8008B3003178D0000308F00031009302C
:100FA0000313BC005B24023084003B08BF003A08F6
:100FB000BE003908BD003808BC000130C000012562
:100FC0002030C900E1234330C900E123C830CA0002
:100FD000BC222D080319F02F013A0319F22FF42F28
:0E0FE000E125F52F8C2EF52FE125B02F6300B3
:02400E00723FFF
:00000001FF
;PIC16F877A
;CRC=3967  CREATED="11-Jan-23 14:55"
